:1000000000308A0062280000FF00030E8301A10077
:100010007F08A0000A08A7008A01A00E0408A20019
:100020007708A3007808A4007908A5007A08A6003C
:10003000831383128C308400801E20288C1A3A2867
:10004000220884002308F7002408F8002508F90096
:100050002608FA0027088A00210E8300FF0E7F0E73
:1000600009000A108A100A11820731340034323430
:10007000003400343008840083133118831784035C
:10008000840A8C1E41281A0880000D300002031DCE
:10009000402880018C128A1120283130840083137B
:1000A0000008031961280130F800F701F70B562802
:1000B000F80B55284A30F700F70B5C285F28800BB7
:1000C0005328080003081F3983001930831699004C
:1000D000A6309800903083129800AF01AE0107302F
:1000E0009F008313A801A90183168C16C0308312C8
:1000F0008B0483160613831206176430B1004D205B
:1001000083160613831206136430B1004D2030307D
:1001100084008313B201B100B301F80177143308EE
:100120003120FA00B30A771C9D280002031D9D2888
:10013000840AFA08031D8F28AF287710FA08031DD8
:100140008F28F80A77143108840083133218831734
:1001500033083120003A031D8F28FF30F80078085B
:100160000319B628013A0319BB28BF288316861342
:1001700083128617BF288316861383128613792865
:0201800063001A
:02400E00223F4F
:00000001FF
;PIC16F628A
;CRC=B551  CREATED="07-oct.-21 08:28"
