:1000000000308A00862800007039E539E937EE3083
:10001000E437A01800007039E539E937EE30E437ED
:10002000201900002B3084008313000803192628B0
:100030000130F800F701F70B1B28F80B1A284A309B
:10004000F700F70B21282428800B182808000B083C
:10005000AB008B13831603178C170C1400000000E1
:1000600083120313AB1B8B1703170C087F3903197B
:100070007D280313AB0003170D080313AC0003170F
:100080000F080313AD002B080C1E442899002C0800
:1000900003178D0003132D0803178F0003130B089C
:1000A000AE008B13831603178C170C14000000008E
:1000B00083120313AE1B8B1703170C0D0E0D7F3924
:1000C00003197D280313AB0003170D080313AC00BD
:1000D00003170F080313AD002B080C1E6D289900A1
:1000E0002C0803178D0003132D0803178F008D0AAA
:1000F00003198F0A031327280317031308008C1E04
:100100007F281A08A9008A110A12D62803081F3965
:100110008300193083169900A6309800903083121E
:100120009800A701A601E830A80083161F149F14A9
:100130001F159F1107309C0083138312A001A1019A
:1001400083168C16C03083128B048316061083121C
:1001500006108316081383120817C830AB0012204C
:100160008316081383120813C830AB001220290825
:10017000313C031DC6288316881383128817043068
:1001800003178D0000308F00031327202908323C0D
:10019000031DD52883168813831288130B30031789
:1001A0008D0000308F00031327207F28A9286300CB
:02400E00323F3F
:00000001FF
;PIC16F877A
;CRC=1EEA  CREATED="01-oct.-21 16:19"
