:1000000000308A00E12800002B30840083130008B0
:10001000031918280130F800F701F70B0D28F80B29
:100020000C284A30F700F70B13281628800B0A28F3
:10003000080083168601831286012808AB0004207D
:1000400083168601FF30831286002808AB00042047
:100050008A110A120E2983168601813083128600C6
:100060002808AB00042083168601C3308312860063
:100070002808AB00042083168601E730831286002F
:100080002808AB00042083168601FF308312860007
:100090002808AB00042083168601E730831286000F
:1000A0002808AB00042083168601C3308312860023
:1000B0002808AB0004208316860181308312860055
:1000C0002808AB0004208A110A121229831686011F
:1000D0008030831286002808AB0004208316860136
:1000E0004030831286002808AB0004208316860166
:1000F0002030831286002808AB0004208316860176
:100100001030831286002808AB0004208316860175
:100110000830831286002808AB000420831686016D
:100120000430831286002808AB0004208316860161
:100130000230831286002808AB0004208316860153
:100140000130831286002808AB0004208316860144
:100150000230831286002808AB0004208316860133
:100160000430831286002808AB0004208316860121
:100170000830831286002808AB000420831686010D
:100180001030831286002808AB00042083168601F5
:100190002030831286002808AB00042083168601D5
:1001A0004030831286002808AB00042083168601A5
:1001B0008030831286002808AB0004208A110A12BE
:1001C000162903081F398300193083169900A630B9
:1001D0009800903083129800A701A601E830A8008B
:1001E0006430A90083161F149F141F159F11073038
:1001F0009C0083138312A001A10183168C16C030CA
:1002000083128B0483160610831206108C1E062997
:100210001A08AA002A08313C031919282A08323C76
:1002200003192B282A08333C031966282A08343C72
:10023000031D1C296430A8002A08353C031D22290F
:10024000F430A8002A08363C031D2829E830A8000D
:040250000629630018
:02400E00323F3F
:00000001FF
;PIC16F877A
;CRC=8E1D  CREATED="16-sept.-21 16:05"
